:100000000C9434000C943E000C943E000C943E0082
:100010000C943E000C943E000C943E000C943E0068
:100020000C943E000C943E000C943E000C943E0058
:100030000C943E000C943E000C943E000C943E0048
:100040000C943E000C943E000C943E000C943E0038
:100050000C943E000C943E000C943E000C943E0028
:100060000C943E000C943E0011241FBECFEFD8E04C
:10007000DEBFCDBF0E9440000C9430010C94000004
:100080000F931F93CF93DF930E94BF00219A8AB1F1
:100090008C608AB90E94E40000E911E080E00E94CF
:1000A000C500EC0181E00E94C5009C01C436D10569
:1000B00048F48B3F910530F082E02C3B380710F478
:1000C00082E552C0CE01855893408B37910548F4A4
:1000D0002B3F310530F082E02C3B380710F48CE4E4
:1000E00043C0C901845893408C37910548F482E09D
:1000F000CC3BD80728F4CA3FD10510F086E434C0C1
:100100002436310548F482E0CC3BD80728F4CB3FB5
:10011000D10510F082E428C0C90181599140873C83
:10012000910550F481E0C139D80730F082E0C8353C
:10013000D80710F483E518C0CE01885E9340489735
:1001400050F483E0283E380730F084E02030380750
:1001500010F481E509C0265B33402A34310530F4C0
:10016000C83CD10518F485E40E94F3008CED95E0BD
:10017000F8013197F1F7019709F490CFF9CF109278
:100180007C0083E880937A00089590917C00907EB3
:1001900090937C0090917C008770892B80937C00E9
:1001A00080917A00806480937A0080917A0084FF45
:1001B000FCCF80917A00806180937A002091780052
:1001C00030917900C901089582E08093C00088E1F0
:1001D0008093C10086E08093C2001092C5008FEC2E
:1001E0008093C4000895982F8091C00085FFFCCFB4
:1001F0009093C60008958091C00087FFFCCF809146
:10020000C6000895AC0120E007C08091C00085FFC2
:10021000FCCFE093C6002F5FFA01E20FF11DE081F1
:10022000EE2399F70895DC018091C00087FFFCCF91
:100230008091C6008C9390E00BC09F5F8091C000BE
:1002400087FFFCCF8091C600FD01E90FF11D80837F
:10025000FD01E90FF11D8081833279F71082089545
:04026000F894FFCF40
:00000001FF
