:100000000C9434000C943E000C943E000C943E0082
:100010000C943E000C943E000C943E000C943E0068
:100020000C943E000C943E000C943E000C943E0058
:100030000C943E000C943E000C943E000C943E0048
:100040000C943E000C943E000C943E000C943E0038
:100050000C943E000C943E000C943E000C943E0028
:100060000C943E000C943E0011241FBECFEFD8E04C
:10007000DEBFCDBF0E9455000C9468010C940000B7
:1000800010928500109284002FE33CE930938700A2
:1000900020938600909389008093880082E8809363
:1000A00080008AE18093810008958F929F92AF92A1
:1000B000BF92CF92DF92EF92FF920F931F93CF9355
:1000C000DF938AB18C608AB9219A8AB18C608AB92F
:1000D00088EE93E020E931E0F9013197F1F70197DB
:1000E000D9F70E941C010FE31CE940ECA42E42E169
:1000F000B42E32E8E32E2AE1F22EC0E9D1E098EEE8
:10010000C92E93E0D92E80EF882E8AE0982E0E9487
:1001100033018235C1F4109285001092840010934F
:10012000870000938600B0928900A0928800E09238
:100130008000F092810084EF91E0FE013197F1F7A9
:100140000197D9F7E4CF8C34C1F410928500109256
:1001500084001093870000938600D0928900C0929B
:100160008800E0928000F092810084EF91E0FE012F
:100170003197F1F70197D9F7CACF8335D1F45A985F
:100180005B98109285001092840010938700009372
:1001900086009092890080928800E0928000F09220
:1001A000810084EF91E0FE013197F1F70197D9F7D3
:1001B000AECF863419F45A9A5B98A9CF823419F4D9
:1001C0005A985B9AA4CF8135D1F45A9A5B981092D1
:1001D0008500109284001093870000938600D092CF
:1001E0008900C0928800E0928000F092810084EF44
:1001F00091E0FE013197F1F70197D9F788CF853467
:1002000009F085CF5A9A5B9810928500109284006D
:100210001093870000938600B0928900A092880016
:10022000E0928000F092810084EF91E0FE0131972E
:10023000F1F70197D9F76BCF82E08093C00088E196
:100240008093C10086E08093C2001092C5008FECBD
:100250008093C4000895982F8091C00085FFFCCF43
:100260009093C60008958091C00087FFFCCF8091D5
:10027000C6000895AC0120E007C08091C00085FF52
:10028000FCCFE093C6002F5FFA01E20FF11DE08181
:10029000EE2399F70895DC018091C00087FFFCCF21
:1002A0008091C6008C9390E00BC09F5F8091C0004E
:1002B00087FFFCCF8091C600FD01E90FF11D80830F
:1002C000FD01E90FF11D8081833279F710820895D5
:0402D000F894FFCFD0
:00000001FF
